:020000040800F2
:10000000000400201B020008011000080310000873
:10001000071000080B1000080F1000080000000077
:1000200000000000000000000000000013100008A5
:100030001510000800000000171000081910000833
:100040003B0200083B0200083B0200083B0200089C
:100050003B0200083B0200083B0200083B0200088C
:100060003B0200083B0200083B0200083B0200087C
:100070003B0200083B0200083B0200083B0200086C
:100080003B0200083B0200083B0200083B0200085C
:100090003B0200083B0200083B0200083B0200084C
:1000A0003B0200083B0200083B0200083B0200083C
:1000B0003B0200083B0200083B0200083B0200082C
:1000C0003B0200083B0200083B0200083B0200081C
:1000D0003B020008AD100008351100083B02000883
:1000E0003B0200083B0200083B0200083B020008FC
:1000F0003B0200083B0200083B0200083B020008EC
:100100003B0200083B0200083B0200083B020008DB
:100110003B0200083B0200083B0200083B020008CB
:100120003B0200083B0200083B0200083B020008BB
:1001300000F002F800F060F80AA090E8000C824499
:100140008344AAF10107DA4501D100F055F8AFF276
:10015000090EBAE80F0013F0010F18BFFB1A43F0A5
:1001600001031847B0F40000D0F4000010F8013B80
:100170000A4413F0030408BF10F8014B1D1108BF17
:1001800010F8015B641E05D010F8016B641E01F8C5
:10019000016BF9D1002D15D010F8014B03F00C03C1
:1001A0000C2BA1EB04040ABF10F8013BA4EB831451
:1001B000A4EB032405F1010314F8016B5B1E01F8A5
:1001C000016BF9D5914238BF10F8013BD1D370478C
:1001D0000023002400250026103A28BF78C1FBD850
:1001E000520728BF30C148BF0B6070471FB501F0F0
:1001F000FFFD1FBD10B510BD01F05DFD1146FFF7FD
:10020000F5FF00F070F801F07BFD03B4FFF7F2FF9B
:1002100003BC01F083FD000070470B4880470B4989
:1002200081F308880A480047FEE7FEE7FEE7FEE79D
:10023000FEE7FEE7FEE7FEE7FEE7FEE705480649C4
:10024000064A074B7047000019020008801D002075
:100250003101000880150020801D00208019002039
:10026000801900208949086000BF88490968002971
:10027000FBD1704710B500214FF0006000F0A2FFE5
:1002800010BD08B54FF47060ADF8000010208DF877
:10029000030003208DF8020069467D4801F028F82C
:1002A0004FF40070ADF8000018208DF80300032013
:1002B0008DF802006946774801F01AF84FF4806023
:1002C000ADF8000004208DF803006946714801F084
:1002D0000FF808BD10B500F068FE012144F264007B
:1002E00001F0AAFA10BD08B5FFF7F4FF00F044F9D9
:1002F000FFF7C7FFFFF7BEFF00BF674800684FF476
:100300007A72B0FBF2F1B1F1807F01D301201DE0E0
:1003100021F07F40401E4FF0E022506150170F2225
:10032000002807DA13071E0E5C4B00F00F052D1F87
:100330005E5503E013071D0E594B1D5400BF0020EE
:100340004FF0E02290610720106100200028D4D1F6
:100350004FF6FF7000F049FC1F2000F00FFC51A188
:10036000182000F0B2FC53A1302000F0AEFC4FF496
:10037000784000F003FC00F06DFE5348C02390224B
:1003800040210090442000F073FD74E04FF4807130
:100390003F4801F058F84FF460613D4801F055F8CE
:1003A0004A4801F0D9FBC4B24FF4784000F0E6FBB4
:1003B00022463C21482000F077FC662C27D1C8203B
:1003C000FFF750FF4FF6FF7000F00FFC1F2000F00A
:1003D000D5FB3FA1182000F078FC41A1302000F0AF
:1003E00074FCC820FFF73EFFC820FFF73BFFC82082
:1003F000FFF738FF4FF4784000F0C0FB34A118201D
:1004000000F063FC36A1302000F05FFC0CE0732CA0
:100410000AD11F2000F0B2FB22A1182000F055FCE9
:1004200032A1302000F051FC4FF40071184801F067
:100430000AF84FF45061164801F007F8C820FFF79A
:1004400011FF4FF48061124800F0FDFF4FF430615E
:100450000F4800F0FAFFC820FFF704FF4FF40061D7
:100460000B4800F0F0FF4FF4E061094800F0EDFFA9
:10047000C820FFF7F7FE89E70448006820B1034869
:100480000068401E0149086070470000000000201D
:100490000014014000080140001E000818ED00E0B3
:1004A00000E400E020202020204D454953544552CF
:1004B0000000000046697265205761726E696E67C0
:1004C0002053797374656D00141E000800380140D4
:1004D00020202020205761726E696E6700000000A6
:1004E0002020202020484F55534500002020205038
:1004F00069637475726520686F757365000000002C
:10050000800400BF0100A0F10100FBD1704710B5CD
:1005100004464FF48050FE490860E0B201F02AFC26
:1005200000BF00204FF40051F94A121F116049002A
:1005300011604900121D11604FF04431F54A1160FD
:10054000121F1160F349091D096888B2F149091D9C
:10055000096888B24FF03331121D1160121F11600B
:100560004FF40041EA4A121F116000BF0446C81050
:1005700011460860204610BD10B5E748806940F07C
:100580007D00E54988614FF03330E249091F08607A
:10059000091D0860DE481038006880B2DC49103957
:1005A000086008460068DD490843D94910390860E9
:1005B0004FF47040D649091F08600121002001F066
:1005C00001FC0220FFF79CFF49F22530D449088046
:1005D00008460088A0F5134120397CD14FF4004132
:1005E000E52001F0EFFB0121002001F0EBFB4FF4CF
:1005F0008071012001F0E6FB4FF4E061022001F080
:10060000E1FB41F23001032001F0DCFB002104207A
:1006100001F0D8FB40F20221082001F0D3FB0021B9
:10062000092001F0CFFB00210A2001F0CBFB0021C3
:100630000C2001F0C7FB00210D2001F0C3FB0021BD
:100640000F2001F0BFFB0021102001F0BBFB0021B7
:10065000112001F0B7FB0021122001F0B3FB0021B3
:10066000132001F0AFFB0520FFF74AFF41F2B07104
:10067000102001F0A7FB40F23711112001F0A2FB7E
:100680000220FFF73DFF40F23911122001F09AFBE2
:100690000220FFF735FF4FF4E851132001F092FBE1
:1006A0001321292001F08EFB0220FFF729FF0021F2
:1006B000202001F087FB0021212001F083FB06218F
:1006C000302001F07FFB40F20111312001F07AFB74
:1006D0000321322000E07DE001F074FB4FF48371D0
:1006E000352001F06FFB40F60231362001F06AFB45
:1006F00040F20231372001F065FB40F207713820EB
:1007000001F060FB0721392001F05CFB4FF4C06170
:100710003C2001F057FB40F20B213D2001F052FB41
:100720000021502001F04EFBEF21512001F04AFB47
:100730000021522001F046FB40F23F11532001F00E
:1007400041FB4FF41C51602001F03CFB0121612072
:1007500001F038FB00216A2001F034FB00218020E9
:1007600001F030FB0021812001F02CFB00218220D0
:1007700001F028FB0021832001F024FB00218420CC
:1007800001F020FB0021852001F01CFB10219020AE
:1007900001F018FB0021922001F014FB03219320AB
:1007A00001F010FB4FF48871952001F00BFB002144
:1007B000972001F007FB0021982001F003FB41F294
:1007C0003801032001F0FEFA40F27311072001F016
:1007D000F9FAC1E152480088A0F51341253905D046
:1007E0004F480088A0F5134128397DD147F6F00124
:1007F000E52001F0E7FA4FF48071012001F0E2FA00
:100800004FF4E061022001F0DDFA41F230010320F3
:1008100001F0D8FA0021042001F0D4FA40F20221BC
:10082000082001F0CFFA0021092001F0CBFA0021C5
:100830000A2001F0C7FA00210C2001F0C3FA0021C0
:100840000D2001F0BFFA00210F2001F0BBFA0021BA
:10085000102001F0B7FA0021112001F0B3FA0021B5
:10086000122001F0AFFA0021132001F0ABFA0520AD
:10087000FFF746FE41F2B071102001F0A3FA40F2FA
:100880003711112001F09EFA0220FFF739FE40F2E5
:100890003911122001F096FA0220FFF731FE4FF4D1
:1008A000E851132001F08EFA1321292001F08AFA71
:1008B0000220FFF725FE0021202001F083FA00210D
:1008C000212001F07FFA0520FFF71AFE06213020D3
:1008D00001F078FA40F20111312001F073FA03219E
:1008E000322001F06FFA00E09FE04FF48371352071
:1008F00001F068FA40F60231362001F063FA40F266
:100900000231372001F05EFA40F20771382009E029
:100910001414014004180140001002400000333359
:100920000815002001F04EFA0721392001F04AFA9B
:100930004FF4C0613C2001F045FA40F20B213D200C
:1009400001F040FA0520FFF7DBFD0021502001F007
:1009500039FAEF21512001F035FA0021522001F03F
:1009600031FA40F23F11532001F02CFA4FF42741A5
:10097000602001F027FA0121612001F023FA002113
:100980006A2001F01FFA0021802001F01BFA0021EB
:10099000812001F017FA0021822001F013FA0021D2
:1009A000832001F00FFA0021842001F00BFA0021CE
:1009B000852001F007FA1021902001F003FA4FF48E
:1009C000C061922001F0FEF940F23311072001F0DE
:1009D000F9F90021202001F0F5F90021212001F092
:1009E000F1F91021902001F0EDF90021922001F0A1
:1009F000E9F90321932001F0E5F94FF4887195207E
:100A000001F0E0F90021972001F0DCF900219820A5
:100A100001F0D8F941F23801032001F0D3F940F296
:100A20007311072001F0CEF996E0F7480088A0F591
:100A300009419939F8D10121002001F0C3F943F6A9
:100A40003F31012001F0BEF94FF4C061022001F0F6
:100A5000B9F907210C2001F0B5F906210D2001F0AC
:100A6000B1F94FF448510E2001F0ACF9BB211E2022
:100A700001F0A8F946F66421032001F0A3F9002152
:100A80000F2001F09FF94FF46F41442001F09AF9D3
:100A90000021452001F096F940F23F11462001F077
:100AA00091F90021302001F08DF940F206713120DA
:100AB00001F088F940F20621322001F083F94FF469
:100AC0004071332001F07EF90221342001F07AF9DF
:100AD0000021352001F076F940F20771362001F04F
:100AE00071F94FF40071372001F06CF940F60811EC
:100AF0003A2001F067F940F60D713B2001F062F9F0
:100B00000621282001F05EF941F2EB212F2001F0AF
:100B100059F94FF4E041262001F054F94BF2E3017A
:100B2000202001F04FF94421272001F04BF947F62E
:100B300045612E2001F046F90021102001F042F914
:100B40000820FFF7DDFC46F67801112001F03AF9A4
:100B50003321072001F036F910BD70B504460D466B
:100B6000A1B2202001F02EF9A9B2212001F02AF92A
:100B7000A6480188222001F025F970BDA34908800C
:100B80007047A349088070472DE9F04104460D469F
:100B900016461F469C480088A0F50941993910D196
:100BA000701E44EA002081B2442001F00BF9A9B282
:100BB000452001F007F9781E81B2462001F002F9C4
:100BC00011E0A1B2502001F0FDF8701E81B2512059
:100BD00001F0F8F8A9B2522001F0F4F8781E81B2C1
:100BE000532001F0EFF8BDE8F08170B505464FF4F1
:100BF000A073F02200210846FFF7C6FF0021084637
:100C000001F094F84FF4805082490860222001F0EE
:100C1000B1F8002403E0284601F0C0F8641CB4F5E4
:100C2000963FF8D34FF480507A49091F086070BD91
:100C30002DE9F04704460D46914600260027B046B0
:100C4000A046A9B208F0FF0001F070F800BF27E04D
:100C50004FF480506F490860222001F08BF80F2775
:100C60000FE039F816000121B940084204D1684864
:100C7000008801F093F803E06448008801F08EF8E2
:100C80007F1E002FEDDA4FF480506249091F086083
:100C900008F10108A9B208F0FF0001F047F8761C3E
:100CA000182ED5D3BDE8F08770B505460E4614461C
:100CB000A4F12000C4B204EB4400574901EB001238
:100CC00031462846FFF7B4FF70BD2DE9F0410746D5
:100CD0000C4600254FF4987607E0227831463846D6
:100CE000FFF7E2FF103E641C6D1C207808B1012064
:100CF00000E00020142D01D2012100E00021084273
:100D0000EBD1BDE8F08110B5044644A12046FFF7C1
:100D1000DCFF10BD2DE9F05F04460D4616461F4668
:100D2000DDF828A006FB07FBD146A9B2502001F050
:100D300049F8E819401E81B2512001F043F8A1B2F0
:100D4000522001F03FF8A019401E81B2532001F05B
:100D500039F8A9B2202001F035F8A1B2212001F024
:100D600031F84FF480502B490860222001F002F83E
:100D70004FF0000805E039F8020B01F00FF808F118
:100D80000108D845F7D34FF480502249091F086065
:100D9000BDE8F09F70B50021084600F0C7FF4FF492
:100DA00080501C490860222000F0E4FF002452E03B
:100DB00000254CE0B4F58C7F03DB002000F0EEFF53
:100DC00043E0EF2C03DD1F2000F0E8FF3DE0C72CDF
:100DD00004DD4FF4FC6000F0E1FF36E09F2C04DD01
:100DE00040F2FF7000F0DAFF2FE0772C04DD4FF4C3
:100DF000784000F0D3FF28E04F2C1BDD4FF61F009A
:100E000000F0CCFF21E000000815002004150020B0
:100E1000061500201414014004000020202020208A
:100E200020202020202020202020202020202020C2
:100E300000000000272C04DD4FF6E07000F0AEFF4C
:100E400003E04FF6FF7000F0A9FF681C85B2F02D9B
:100E5000B0DB601C84B2B4F5A07FA9DB4FF48050F6
:100E60001D49086070BD10B5222000F083FF10BD41
:100E70002DE9F05F06460F4614461D46DDF828A012
:100E800004FB05FBD1467B19321939463046FFF782
:100E90007BFE3946304600F049FF41F2380103201D
:100EA00000F090FF4FF480500B49091D086022208C
:100EB00000F060FF4FF0000805E039F8020B00F089
:100EC0006DFF08F10108D845F7D34FF4805002496F
:100ED0000860BDE8F09F00001014014000210020D0
:100EE000434A126842F48032414B1A6000BF404AC4
:100EF000126802F40030491C10B9B1F5A06FF6D1A8
:100F00003B4A126812F4003F01D0012000E00020AB
:100F1000012843D1374A126842F01002354B1A605B
:100F20001A46126822F003021A601A46126842F04A
:100F300002021A602E4A52682D4B5A601A465268B5
:100F40005A601A46526842F480625A601A465268E1
:100F500022F47C125A601A46526842F4E8125A602F
:100F60001A46126842F080721A6000BF204A126866
:100F700012F0007FFAD01E4A526822F003021C4B86
:100F80005A601A46526842F002025A6000BF184A7C
:100F9000526802F00C02082AF9D101E000BFFEE716
:100FA000704710B5FFF79AFF10BD10B510480068E4
:100FB00040F001000E490860084640680E490840AC
:100FC0000B494860084600680C4908400849086019
:100FD0000846006820F4802008600846406820F435
:100FE000FE0048604FF41F008860FFF7DAFF10BD75
:100FF00000100240002002400000FFF8FFFFF6FE54
:10100000704700BFFEE700BFFEE700BFFEE700BF7E
:10101000FEE770477047704710B5FFF72DFA10BD17
:1010200000BF4A49098811F0800FFAD0C0F30801C7
:10103000464A121D1180704730B504460D46002304
:1010400004E0E05CFFF7ECFF581C83B2681E984296
:10105000F7DC30BD1FB54FF4E13000900020ADF853
:101060000400ADF80600ADF80800ADF80C000C2047
:10107000ADF80A006946354800F089FC012240F2CB
:101080002551324800F000FD0121304800F0F0FC0D
:10109000252000F01F020121914042094FF0E0237A
:1010A00003EB8202C2F8001100BF1FBD10B540F271
:1010B0002551264800F0B9FD18B12448001D0088CC
:1010C000C4B210BD00BF2249098811F0800FFAD0C8
:1010D000C0F308011E4A121D1180704730B5044646
:1010E0000D46002304E0E05CFFF7ECFF581C83B2E0
:1010F000AB42F8DB30BD1FB54FF4E130009000206B
:10110000ADF80400ADF80600ADF80800ADF80C002D
:101110000C20ADF80A0069460D4800F038FC0122A9
:1011200040F225510A4800F0AFFC0121084800F0C8
:101130009FFC1FBD10B540F22551054800F075FD1C
:1011400018B10348001D0088C4B210BD003801402A
:101150000044004031490143314A1160704770B585
:10116000002100230F22C4780CB32D4C246804F412
:10117000E064C4F5E064210AC1F10403CA40447884
:1011800004FA03F18478144021430901254C0678C0
:10119000A155047804F01F050124AC4005786D11B9
:1011A0004FF0E02606EB8505C5F8004109E004781C
:1011B00004F01F050124AC401B4D0678761145F85C
:1011C000264070BD194A0A400243154B1B1F1A6086
:1011D000704739B1124A121D12680243104B1B1D91
:1011E0001A6006E00E4A121D126882430C4B1B1D4A
:1011F0001A607047042808D14FF0E021096941F0D6
:1012000004014FF0E022116107E04FF0E02109698D
:1012100021F004014FF0E022116170470000FA054F
:101220000CED00E000E400E080E100E080FFFF1F43
:1012300010B50446C248844208D10121042000F0C0
:1012400015FB0021042000F011FB46E0BD4884425C
:1012500008D10121082000F009FB0021082000F03E
:1012600005FB3AE0B848844208D10121102000F083
:10127000FDFA0021102000F0F9FA2EE0B348844274
:1012800008D10121202000F0F1FA0021202000F0F7
:10129000EDFA22E0AE48844208D10121402000F05E
:1012A000E5FA0021402000F0E1FA16E0A948844266
:1012B00008D10121802000F0D9FA0021802000F01F
:1012C000D5FA0AE0A448844207D10121801500F034
:1012D000CDFA0021A01500F0C9FA10BD10B501210A
:1012E000084600F0C3FA0021012000F0BFFA10BD4B
:1012F0002DE9F041024600250026002000230024AD
:10130000002791F803C00CF00F0591F803C01CF002
:10131000100F03D091F802C04CEA0505B1F800C0E7
:101320001CF0FF0F31D0146800202BE04FF0010CAF
:101330000CFA00F3B1F800C00CEA03069E4220D17B
:1013400083004FF00F0C0CFA03F7BC4305FA03FCC3
:101350004CEA040491F803C0BCF1280F06D14FF009
:10136000010C0CFA00FCC2F814C00AE091F803C0AA
:10137000BCF1480F05D14FF0010C0CFA00FCC2F88B
:1013800010C0401C0828D1D31460B1F800C0BCF1D3
:10139000FF0F34DD546800202EE000F1080C4FF000
:1013A000010808FA0CF3B1F800C00CEA03069E42EB
:1013B00021D183004FF00F0C0CFA03F7BC4305FA60
:1013C00003FC4CEA040491F803C0BCF1280F05D1DA
:1013D00000F1080C08FA0CF8C2F8148091F803C068
:1013E000BCF1480F07D100F1080C4FF0010808FAD2
:1013F0000CF8C2F81080401C0828CED35460BDE819
:10140000F0814FF6FF710180022181700421C170CB
:1014100070470246002093680B4201D0012000E093
:10142000002070470146886880B27047024600205D
:10143000D3680B4201D0012000E000207047014634
:10144000C86880B2704701617047416170470AB156
:10145000016100E041617047C16070474FF4803224
:101460000A438261816182618269826970470246B2
:1014700000203A4B18684FF68073184040EA02107B
:101480000843364B186070473549C8617047F0B55E
:101490000A460023002400210025304E7168C0F365
:1014A000034583B200F44016B6F5401F08D121F081
:1014B00070612A4E766826F07066284F7E6012E0D2
:1014C00000F48016B6F5801F06D1032606FA05F44F
:1014D000A14341F0706106E0460D360103FA06F6BD
:1014E000B14341F0706122B1460D360103FA06F6B0
:1014F00031431A4E7160F0BD30B500228B071C0FCE
:101500000F2303FA04F2154B08338C1053F82430E0
:101510009343124C08348D1044F8253023468C1028
:1015200053F824308C07240F00FA04F423430B4CA7
:1015300008348D1044F8253030BD0A4908607047E2
:1015400000080140000C014000100140001401405F
:1015500000180140001C0140002001400000014033
:1015600000002042DC002042DC48006840F001001E
:10157000DA49086008464068D9490840D7494860B8
:1015800008460068D7490840D44908600846006802
:1015900020F4802008600846406820F4FE0048607F
:1015A0004FF41F0088607047CC49096821F48031EE
:1015B000CA4A11601146096821F480211160B0F512
:1015C000803F03D0B0F5802F0ED106E0C3490968F3
:1015D00041F48031C14A116007E0C049096841F413
:1015E000A021BE4A116000E000BF00BF704710B5E7
:1015F00001460022002300204A11012A02D1B74CE3
:10160000236806E0022A02D1B44C236A01E0B34CFD
:10161000636A01F01F02012494401C4201D00120A2
:1016200000E0002010BD70B500240025002600BF9A
:101630003120FFF7DCFF0646641CB4F5A06F01D033
:10164000002EF5D03120FFF7D2FF08B1012500E0D0
:101650000025284670BD01460020A04A106820F0F1
:10166000F80040EAC100106070479F490860704769
:1016700002460020994B586820F47C1042EA01038E
:101680001843964B58607047974908667047014663
:101690000020924A506820F00300084350607047D1
:1016A0008E48406800F00C007047014600208B4ACD
:1016B000506820F0F0000843506070470146002059
:1016C000864A506820F4E060084350607047014645
:1016D0000020824A506820F4605040EAC100506007
:1016E000704729B17D4A527A02437C4B5A7206E018
:1016F0007A4A527AC343DBB21A40784B5A72704727
:101700007A490860704701460020744A506820F406
:1017100040400843506070470021754A11706F4A7D
:1017200082F82010012802D0042808D103E001210A
:101730006F4A117004E005216D4A117000E000BF8E
:1017400000BF70476B49086070476449096A0143EC
:10175000624A11627047674944390860704730B582
:1017600000210022002400235C4D6D6805F00C016F
:1017700021B1042905D0082923D105E05E4D05607B
:1017800022E05D4D05601FE0544D6D6805F4701258
:10179000524D6D6805F48034022505EB92421CB968
:1017A000564D554305600BE04C4D6D6815F4003FF8
:1017B00003D0524D5543056002E04F4D554305603F
:1017C00002E04D4D056000BF00BF444D6D6805F05F
:1017D000F00109094A4D6B5C0568DD4045603F4DED
:1017E0006D6805F4E061090A454D6B5C4568DD40B4
:1017F00085603A4D6D6805F46051C90A404D6B5CD7
:101800004568DD40C560354D6D6805F44041890B84
:101810003C4D6B5CC568B5FBF3F5056130BD29B186
:101820002E4A526902432D4B5A6104E02B4A5269F9
:1018300082432A4B5A61704729B1284A9269024370
:10184000264B9A6104E0254A92698243234B9A61B0
:10185000704729B1214AD2690243204BDA6104E082
:101860001E4AD26982431D4BDA61704729B11B4A77
:10187000D2680243194BDA6004E0184AD268824306
:10188000164BDA60704729B1144A12690243134BB0
:101890001A6104E0114A12698243104B1A617047C1
:1018A00014494039086070470F49C86470470B49B4
:1018B000C87170470948406A40F080700749486223
:1018C000704701460020054A92680A4201D0012073
:1018D00000E0002070470149887270470010024004
:1018E0000000FFF8FFFFF6FE00004242D80042422F
:1018F000201002408004424200127A0000093D009C
:101900000A1500201A15002010B50446E348844249
:1019100009D101218803FFF7A9FF00214FF480407E
:10192000FFF7A4FF32E0DE48844209D101214804D8
:10193000FFF7A9FF00214FF40030FFF7A4FF25E0D7
:10194000D848844209D101218804FFF79CFF002177
:101950004FF48020FFF797FF18E0D348844209D165
:101960000121C804FFF78FFF00214FF40020FFF78B
:101970008AFF0BE0CD48844208D101210805FFF71A
:1019800082FF00214FF48010FFF77DFF10BD2DE98D
:10199000F04786B005460E460024A24600BF00BFB1
:1019A0000027B08900B100BF2F462C8A4CF6FF708B
:1019B0000440F08804432C82AC894EF6F3100440B6
:1019C000B08831890843718908430443AC81AC8AEB
:1019D0004FF6FF400440B0890443AC8201A8FFF7F2
:1019E000BEFEAE48874202D1DDF810A001E0DDF86E
:1019F0000CA00AEBCA0000EB0A1031688900B0FBAA
:101A0000F1F86420B8FBF0F004012009642101FB27
:101A10001089322000EB0910B0FBF1F000F00F004C
:101A200004432C8106B0BDE8F0874FF416510160E5
:101A300000218180C18001810C21418100218181AF
:101A4000704710B502460020108A4FF2FF0318407D
:101A50000B884C8823438C882343CC88234318432A
:101A6000108210BD0021018041808180C1807047BB
:101A700021B1828942F40052828104E082894DF6CC
:101A8000FF731A4082817047F0B503460024002698
:101A900000250020A1F510676A3F00D100BF18465D
:101AA000C1F3421401F01F06012707FA06F5012CC5
:101AB00001D10C3004E0022C01D1103000E01430D0
:101AC0001AB107682F43076002E00768AF43076059
:101AD000F0BD10B51AB1838A0B43838204E0838A78
:101AE000CC43A4B22340838210BD028A4FF6F07328
:101AF0001A400282028A0A430282704782894FF2A8
:101B0000FF731A40828182890A438281704721B122
:101B1000828942F00202828104E082894FF6FD73DD
:101B20001A4082817047028A4FF6DF731A400282A0
:101B3000028A0A430282704721B1028A42F480423B
:101B4000028204E0028A4BF6FF731A400282704759
:101B5000C1F308028280704701468888C0F30800FC
:101B60007047818941F0010181817047028BD2B2B7
:101B70000283028B42EA012202837047028B02F445
:101B80007F420283028B0A430283704721B1828A1B
:101B900042F02002828204E0828A4FF6DF731A400C
:101BA0008282704721B1828A42F01002828204E070
:101BB000828A4FF6EF731A408282704721B1828A7F
:101BC00042F00802828204E0828A4FF6F7731A40DC
:101BD00082827047828A4FF6FB731A408282828A21
:101BE0000A438282704721B1828A42F002028282D5
:101BF00004E0828A4FF6FD731A40828270470246E3
:101C00000020B1F5007F00D100BF13880B4201D046
:101C1000012000E00020704701F40072B2F5007F5F
:101C200000D100BFCA430280704770B5024600244D
:101C3000002300250020A1F510666A3E00D100BFF8
:101C4000C1F3421501F01F03012606FA03F3012D2B
:101C500002D19689334006E0022D02D1168A334024
:101C600001E0968A33400C12012606FA04F4168825
:101C7000344013B10CB1012000E0002070BD10B55C
:101C800000220023A1F510646A3C00D100BF0A12B3
:101C900001249440A3B2DC43048010BD003801400D
:101CA0000044004000480040004C0040005000400C
:101CB000704770477047754600F028F8AE4605003B
:101CC0006946534620F00700854618B020B5FEF758
:101CD000B5FABDE820404FF000064FF000074FF086
:101CE00000084FF0000B21F00701AC46ACE8C0093A
:101CF000ACE8C009ACE8C009ACE8C0098D46704743
:101D00000446AFF300802046FEF77FFA0048704794
:101D10002015002000487047241500200149182094
:101D2000ABBEFEE7260002007047000070B5044617
:101D30000D460F480088A0F50941993905D00C4897
:101D40000088A0F51941193908D121464E2000F02C
:101D500039F829464F2000F035F807E021462020C9
:101D600000F030F82946212000F02CF870BD00006A
:101D7000081500204FF40051064A11608900121F17
:101D80001160054908604FF48041121D1160121F57
:101D900011607047141401400C1801404FF40051B9
:101DA000064A116089001160054908604FF48041BE
:101DB000121D1160121F11607047000010140140C5
:101DC0000C18014070B505460C464FF48050074989
:101DD00008602846FFF7CEFF2046FFF7DFFF4FF4ED
:101DE00080500249091F086070BD000014140140B2
:101DF00010B5FFF78FFF4FF00001016010BD00002C
:101E000000A24A0400A24A0400A24A04005125028A
:101E100000A24A044F9C4F9C4F9C4F9C4F9C4F9C50
:101E20004F9C4F9C4F9C4F9C4F9C4F9C4F9C4F9C5A
:101E30004F9C4F9C4F9C4F944F9C6F9C90A490A4A0
:101E40002F9C0E94ED8BAC838C83E96AE649C541E7
:101E50008539E2204008410841086108811081105D
:101E6000610840082000200020004008610881101F
:101E7000610861084000600081088110C2182329B0
:101E80008539E649475A465A4662876AA772087BEF
:101E90004983698BAA93AA9BEBA30BAC2CAC2CAC0B
:101EA0004CAC4CB46CB46DBC8DBC8DBC8DBCADC4A5
:101EB000CEC4EECCEECCEECCEECC0FCD2FD530D5C3
:101EC00050DD50DD50DD70DD70DD50DD50DD50DD6A
:101ED00071E591E591E591E591E591E591E5B2E551
:101EE000D2EDD2EDD2EDD2EDD2E5D2EDD2EDD2E50A
:101EF000D2E5D2E5D3EDD3EDD3EDD3EDD3EDD3EDF4
:101F0000D3EDD3EDB2EDB2EDB2E5B2E5B2E592E5D7
:101F100091E571E571E551DD30DD10D5EFCCCEC432
:101F20008DBC6DBC2CB4AA9BE7824572246A246ADE
:101F3000A2592041014121410141C040A0406159C5
:101F40008682899B2CB44DBC8EC4CEC4CFC4AFC492
:101F5000AFBC8EBCCEC42FD5B1E534F675FE96FE6F
:101F600097F697F656EEF4DD51CDB2D5B6FE75F67E
:101F700091D571CDD0B4AC8B4339601827528D7B8D
:101F8000CD830E8C0E944FA48FAC8FA44FA44F9C86
:101F90006F9C709C4F9C4F9C4F9C4F9C4F9C4F9CA8
:101FA0004F9C4F9C4F9C4F9C4F9C4F9C4F9C4F9CD9
:101FB0004F9C4F9C4F9C4F944F9C6F9C6F9C4F9C91
:101FC0000E94ED8BCD8B6B7B2A73885AE649A5392D
:101FD0006431C2184008400841086108811081102E
:101FE00061084008000020002000410861086108E5
:101FF0004108400861088108A110C210E22044296C
:10200000A541E6490652265A4662A76AC872287B4D
:102010004983698BAA9BCA9BEBA32BAC2CAC4CAC21
:102020004CB46CB46CB46DBC8DBC8DBC8DBCADC4FB
:10203000CEC4EECCEECCEECCEFCC0FCD2FD530D540
:1020400050DD50DD50DD70DD70DD50DD50DD50DDE8
:1020500071E591E591E591E591E591E591E5B2E5CF
:10206000D2EDD2EDD2EDD2EDD2EDD2EDD2EDD2E580
:10207000D2E5D2E5D3EDD3EDD3EDD3EDD3EDD3ED72
:10208000D3EDD3EDB2EDB2EDB2EDB2E5B2E5B2E52E
:1020900092E592E591E571E551DD30DD10D5EFCCAB
:1020A000AEC48DBC4DB4EBAB4993C782867A457202
:1020B000C36141496351E561677AC882088B8A9B95
:1020C0002CB4CFCCCFCCEFCC10D510D510CDF0CCDC
:1020D000EFC4EFC40FCD2FD570DDD2E534F696F600
:1020E000B7FE97F676EE35EED3DDB3DD54EE95F61A
:1020F00013E671CD72C52E9C84412010A5394C7316
:10210000CE832F940E944E9C6FA46EA44EA44F9C2D
:102110006F9C709C4F9C4F9C4F9C4F9C4F9C4F9C26
:102120004F9C4F9C4F9C4F9C4F9C4F9C4F9C4F9C57
:102130004F9C4F9C4F9C4F9C4F9C4F9C4F9C0E9490
:10214000ED93CD8B8C834B7B885A064AE641A439AC
:102150000229A1184008410861086108811061083E
:102160004108200000002000410861086108410882
:10217000400820008108A108C210E2180321643140
:10218000A54106520652265A676AC872087B4983DF
:102190006983698BAA9BCAA30BAC2CAC4CAC4CB426
:1021A0004CB46CB46CBC8DBC8DBC8DBCADC4ADC42A
:1021B000CEC4EECCEECCEECCEFCC0FCD2FD530D5BF
:1021C00050DD50DD50DD70DD70DD50DD50DD50DD67
:1021D00071E591E591E591E591E591E591E5B2E54E
:1021E000D2EDD2EDD2EDD2EDD2EDD2EDD2EDD2EDF7
:1021F000D2E5D2E5D3EDD3EDD3EDD3EDD3EDD3EDF1
:10220000D3EDD3EDB2EDD2EDD2EDD2EDB2EDB2E53C
:10221000B2E5B2E5B2E591E571DD50DD30D510D51E
:10222000CFCCAEC48EBC2CB4AAA32893C782867A26
:10223000046AA359877A4A932DB4AFC4F0CCF0D482
:1022400030DD71E571E571E571E571DD51DD51D587
:1022500071D571DD70DD50D550D571DDF3E575F6C2
:10226000B7FED8FE76F696F655EED3DDD3DD95F6BD
:1022700095F6B2D5D3D5D0AC065220100329CA6248
:10228000CD830E8C0E942E9C4EA44E9C4E9C6F9C27
:102290006F9C6F9C4F9C4F9C4F9C4F9C4F9C4F9CA6
:1022A0004F9C4F9C4F9C4F9C4F9C4F9C4F9C4F9CD6
:1022B0004F9C4F9C2F944F9C4F9C4F9C2E94EE9381
:1022C000CD8BCD8B8C830A730652A439E5418431C2
:1022D000A11881106108610861086108610841085E
:1022E0002000000000002000410861084008200094
:1022F000200040008108A210E21003192329643154
:10230000C54106522652465A876AE8722883698B6D
:10231000898B8993AA9BCAA30BAC2CAC4CB44CB44C
:102320006CB46CB46CBC8DBC8DBCADC4ADC4ADC460
:10233000CECCEECCEECCEFCC0FCD0FCD2FD530D513
:1023400050DD50DD50DD70DD70DD70DD50DD70DDA5
:1023500071E591E591E591E591E591E592E5B2E5CB
:10236000D2EDD2EDD2EDD2EDD2EDD2EDF3EDD2ED54
:10237000F2EDF2EDD3EDD3EDD3EDD3EDD3EDD3ED1F
:10238000D3EDD3EDD2EDD3EDD3EDD3EDD3EDD3ED4E
:10239000D2EDB2ED92E591E571DD50DD30D510D58D
:1023A000EFCCCEC4AEC46DBCCBAB499BE78AA78251
:1023B000867A667AECAB6EBCF0D431DD31DD30DD8F
:1023C00031DD51E591E591EDB2EDB2E5B2E5B2E571
:1023D000D3E5F3EDD2E591E570DD50D592DD14E65D
:1023E00097FEF8FE97F696F696F6F3DD92D534EE64
:1023F00095F6F3DDD4D531BDA8624018A118685216
:10240000AD7B0E8C0E942E9C4E9C4E9C4E9C6FA4CD
:102410006FA46F9C4F9C4F9C4F9C4F9C4F9C4F9C1C
:102420004F9C4F9C4F9C4F9C4F9C4F9C4F9C4F9C54
:102430004F9C4F9C2F944F9C4F9C4F9C0E94EE931F
:10244000ED8BCD8B6B7BE96AC5416439C541433166
:1024500080188110811081108110610841082000CE
:10246000000000002000200041084008200020005B
:10247000400861088208A210E21003192329643180
:10248000C5410652465A4662876AC7720883698BFD
:102490008993A993AA9BEAA30BAC2CB44CB44CB47B
:1024A0006CBC6CBC8DBC8DBCADC4ADC4ADC4CDC466
:1024B000EECCEECCEFCC0FCD0FCD0FCD2FD530D550
:1024C00050DD50DD50DD50DD70DD71DD70DD70DD23
:1024D00071E571E591E591E591E592E5B2E5B2ED41
:1024E000D2EDD2EDD2EDD2EDD2EDF3EDF3EDF3ED91
:1024F000F3EDF3EDD3EDD3EDD3EDD3EDD3EDD3ED9C
:10250000D3EDD3EDD3EDD3EDD3EDD3EDD3EDD3EDCB
:10251000D3EDD2EDB2E591E571DD50DD50DD30D582
:10252000EFCCCFCCAECC6DBCEBAB69A3289B289392
:10253000499B8AA3AFCCD0D410DD10DD10DD30E58F
:1025400071EDB2F571ED91EDD2F5F3F5F3F513F60A
:1025500014F634F613EEF2EDB2E571D551D592DDF5
:1025600055EED7FED8FE96F696F655EEB2DDF3E5BB
:1025700075F634EED4DD73C54A7BC1284010C641E0
:102580006C73EE8B0E942E9C4E9C4E9C4FA46FA4AD
:1025900090A46F9C4F9C4F9C4F9C4F9C4F9C4F9C7A
:1025A0004F9C4F9C4F9C4F9C4F9C4F9C4F9C4F9CD3
:1025B0004F9C4F9C4F9C4F9C2F942F940E94EE93C6
:1025C000CD8BCD8B4B7B885AA44164398439022151
:1025D0008010811081108210811061084008200055
:1025E000000020004008400840084008400841081A
:1025F000610881088208A210C318031923296439CD
:10260000E549265266626662866AC77A0883498B04
:102610008993AA9BCAA3EBAB2BAC4CB46CB46CB43F
:102620006CBC8DBC8DBCADC4ADC4ADC4ADC4CDCC93
:10263000EECCEECC0FCD0FCD0FCD0FD52FD530D5A5
:1026400050DD50DD50DD50DD71DD71DD71DD70DD9F
:1026500071E571E591E591E592E5B2E5B2E5B2ED9E
:10266000D2EDD2EDD2EDD2EDD2EDF3EDF3EDF3ED0F
:10267000F3EDF3EDF3EDF3EDF3EDF3EDF3EDF3ED5A
:10268000F3EDF3EDD3EDD3EDD3EDD3EDD3EDD3ED0A
:10269000D3EDD2EDB2E5B1E571DD50DD50DD30D5E1
:1026A000EFD4EFCCAECC6DC40CB4CBB3ABABEBB3CF
:1026B0002DBC8ECC10DD11E531E531E530E530ED96
:1026C00071EDB2F571EDB2F5F3F513FE34FE34F6AB
:1026D00034F634F613F613F6F3ED92DD30CD51CD2A
:1026E000D4E576F6F8FE97F696F696F634EEF3E530
:1026F00034EE75EE14E6F4DD2E9C633900082329D0
:10270000CA628C7BED8B2E944EA44EA44FA46FA472
:1027100090A46F9C4F9C4F9C4F9C4F9C4F9C4F9CF8
:102720004F9C4F9C4F9C4F9C4F9C4F9C4F9C4F9C51
:102730004F9C4F9C4F9C2F940E940E940E94ED8BB7
:10274000AC8B8C83E96AE549643984392329C11843
:102750008110611081108110610841082000200063
:1027600020004108410840084008410861088110E4
:1027700081108108A210C310E31803214429843971
:1027800006524662876AA772C77AE782288B8993C6
:10279000AA9BCAA3EBA30BAC2CB46CBC6DBC8DBCC8
:1027A0008DBCADC48DC4ADC4ADC4ADC4CDC4CECCA0
:1027B000EECC0ECD0FCD0FCD0FCD0FD52FD530D503
:1027C00050DD50DD50DD50DD71DD71E571DD70DD16
:1027D00071E571E591E591E592E5B2E5B2EDB2ED15
:1027E000D2EDD2EDD2EDD2EDF3EDF3EDF3EDF3ED6D
:1027F000F3EDF3EDF3EDF3EDF3EDF3EDF3EDF3EDD9
:10280000F3EDF3EDF3EDF3EDF3EDF3EDD3EDD3ED08
:10281000D2E5D2E5B2E591E570DD50DD30D50FD5DA
:10282000CFD4CECC8ECC4DC42DC44DC46ECC8ECC6A
:10283000F0DC31E551ED51ED51ED31ED30ED30E5AC
:1028400050ED51ED91EDB2F5F3F513FE34FE34FE8B
:1028500054FE54FE34F654F634F6F3E571DD72D5C9
:10286000B3DD14E6D7FEB7FE96F696F696F614E6B6
:10287000F3E534EE35EE76EE52BD876260188118CE
:10288000064AA962AD830E944FA46EA44FA46F9C18
:102890006F9C6F9C4F9C4F9C4F9C4F9C4F9C4F9CA0
:1028A0004F9C4F9C4F9C4F9C4F9C4F9C4F9C4F9CD0
:1028B0004F9C4F9C709C4F9C0E94EE93EE93CD8B4F
:1028C0008C834B7BA862843943318439E2208110A8
:1028D0008110810861086108410820002000200063
:1028E0004108610841084008410861088210A210AF
:1028F00082108108C310E318031923214431A54134
:10290000265A8762C872E87A0883488B8993AA9B03
:10291000EBA3EBA30BAC2BAC4CB46DBC8DBC8DBC52
:10292000AEC4AEC4ADC4ADC4ADC4ADC4ADC4CECCF4
:10293000EECC0ECD0FCD0FCD0FCD0FD52FD530D581
:1029400050DD50DD50DD50DD71DD71E571DD70DD94
:1029500071E571E591E591E5B2E5B2E5B2EDB2ED73
:10296000D2EDD2EDD2EDD2EDF3EDF3EDF3EDF3EDEB
:1029700013EE13EEF3EDF3EDF3EDF3EDF3EDF3ED15
:10298000F3EDF3EDF3EDF3EDF3EDF3EDD3EDD2E590
:10299000D2E5B2E5B1E591DD50DD2FD50FD5EFCC15
:1029A000AECC8ECC4DC42DC46DC4AFD4F0DC10E5DC
:1029B00031E572ED51ED51ED31ED31ED30ED30EDB0
:1029C00050ED51ED71ED91EDD2F5F3F533FE34FE9E
:1029D00054FE75FE75FE75FE75FE34F6D3E5B3DD67
:1029E000B3DDD4DD76F6D7FE96F676EE96F635EEC6
:1029F000B2DDF3E534EEB7F635DE8B83C128401047
:102A00004331C5418C83ED934FA46EA44E9C4E9CE4
:102A10004F9C6F9C4F9C4F9C4F9C4F9C4F9C4F9C3E
:102A20004F9C4F9C4F9C2F9C2F9C2F9C4F9C4F9CAE
:102A30004F9C4F9C4F9C2F942E94EE93CD8BED8BFF
:102A4000CD8B2A73475AA44143310229A118811022
:102A50006108400041084008400820004008410843
:102A600061086108400861088110811061086108EF
:102A700061088110A210C318032123296431054A7B
:102A80006762A76A087B2883498B8993AA9BEAA37C
:102A9000EBA3EBA32CB44CB46DBC8DBCAEBCAEC4EC
:102AA000AEC4AEC4AEC4CEC4AEC4ADC4ADC4ADC479
:102AB000CECCCECC0FCDEFCC0FCD0FD52FD550D562
:102AC00030D52FD570DD71DD71E571DD70DD50DD44
:102AD00070E571E591E592E5B2E5B2E5B2EDD2EDD2
:102AE000D2EDD2EDD2EDD2EDF3EDF3EDF3EDF3ED6A
:102AF00013EE13EEF3EDF3EDF3EDF3EDF3EDF3ED94
:102B0000F3EDF3EDF3EDF3EDD3EDD3EDD3EDD2E54E
:102B1000B2E591E5B1E590DD50D50FCDCECCCECC70
:102B2000AECCAECC4DC48ECCAFD4CFDCF0DC31E536
:102B300031E510E530ED30EDEFE4CFE4EFE410E502
:102B400030E510E591ED91ED91ED92EDD2ED13F6BA
:102B500054FE75FE55FE75FE95FE75FE75F635EE56
:102B6000D3DD72D576EE96F6B7F6B7F696F675F62D
:102B7000F4E592D575F6F8FED4D5B0AC801881187E
:102B8000A11885392B730E946FA44EA42E9C4E9CD5
:102B90002E9C6FA44F9C4F9C4F9C4F9C4F9C4F9CD6
:102BA0004F9C4F9C4F9C2F9C2F9C2F9C4F9C4F9C2D
:102BB0004F9C4F9C4F9C2F942E94EE93CD8BCD8B9E
:102BC000AC830A6B064A843944312329A118610871
:102BD0006108400840084008400841084108410891
:102BE00041084108410861086108610861086108FD
:102BF00081108210A210E218032123298439065281
:102C0000A76AE8722883298B698B8993AA9BEAA318
:102C1000EBA3EBA32CAC4CB46DBC8DBC8DBC8DBCBC
:102C20008DBC8DBCAEC4AEC4AEC4AEC4AEC4CEC446
:102C3000CECCEECC0FCD0FCD0FCD2FD530D550D57E
:102C400050DD50DD70DD71DD71E571E571DD71DD47
:102C500071E591E592E592EDB2E5B2EDB2EDD2ED1E
:102C6000D2EDD2EDD2EDD2EDF3EDF3EDF3EDF3EDE8
:102C700013EE13EEF3EDF3EDF3EDF3EDF3EDF3ED12
:102C8000F3EDF3EDF3EDF3EDD3EDD3EDD3EDD2E5CD
:102C9000B2E591DD70DD70D52FD50FD5EECCAECC81
:102CA0008DC46DC46DC4AECCEFD4F0DCF0DCF0E4C8
:102CB000F0DCCFDCAFDCCFDCEFE4EFDCCFDCCFDC73
:102CC000F0DC30DD30DD30DD71E5B2EDD3F5F3F56C
:102CD00013F613F655FE75FE96FE76FE76F655EE65
:102CE000F4E592D515E676F6B7FED7FEB7FE76F692
:102CF00014E6B3DDF3E596F615E652C563398018A0
:102D000040104431EA6AED8B6FA42E9C4E9C6EA459
:102D10004F9C6F9C4F9C4F9C4F9C4F9C4F9C4F9C3B
:102D20004F9C4F9C4F9C2F9C2F9C2F9C4F9C4F9CAB
:102D30004F9C2F9C2F9C0E942E940E94AD8BAD8B9C
:102D40006B7BA862A541433144312329A11060085F
:102D50006108610820004008410841084108410815
:102D60004008400841086108610861086108811055
:102D70008210A210A218E22023294331A441465A0E
:102D8000E872287B498B698B89938993CA9BEBA353
:102D9000EBA30CAC2CAC4DB46DB46DB46DBC8DBC60
:102DA0008DBC8EBC8EBCAEC4CEC4CEC4CEC4CEC48C
:102DB000CECCEFCC0FCD0FCD0FCD0FCD2FD550D525
:102DC00050DD50DD70DD71DD91E591E591E591E536
:102DD00091E5B1EDB2EDB2EDB2EDB2EDD2EDD2EDE5
:102DE000D2EDF3EDD2EDF3EDF3EDF3EDF3EDF3ED25
:102DF00013EE13EEF3EDF3EDF3EDF3EDF3EDF3ED91
:102E0000F3EDF3EDF3EDF3EDF3EDF3EDD3E5B2E533
:102E100091DD71DD2FD52FD52FD50FD5EECCADC4DB
:102E20004CBC2BBC6DC4AECCEFDCEFDCCFD4CFDC24
:102E3000AFD4AED46DD46DCC6DCC4DCC0CBCCBB37B
:102E40000CBCAECC51DD31DD10D531DD91E5D3EDDB
:102E5000F3F514F634F655FE96FE96FE96FE76F6DB
:102E600035EEF3DDD3DD35EEB7F6D7FEB7FE96F6D9
:102E700035EEF4E5B2DD14E655EEF4D5886260185F
:102E800000080229685AAC834F9C2E9C4EA48FA444
:102E90006FA44F9C4F9C4F9C4F9C4F9C4F9C4F9CB2
:102EA0004F9C4F9C4F9C2F9C2F9C2F9C4F9C4F9C2A
:102EB0004F9C2F9C0E940E942E94EE93AC838C8397
:102EC0002A73475A643903290321E22081104108FB
:102ED0006108410040084008400840084008400898
:102EE00040084008410841086108610882108210CA
:102EF000A210A210A11802296439A4410552876AC0
:102F0000087B4983698B69938993AA9BCBA3EBA325
:102F10000CAC2CAC2CAC4DAC6DB46EB48EBC8EBC79
:102F2000AEBCAEC4AEBCCEC4CFC4CFC4CEC4CEC47F
:102F3000CFC4EFCC2FD50FCD0FCD0FCD2FD550D582
:102F400050DD50DD71DD91E591E591E591E591E58B
:102F5000B2EDD2EDB2EDB2EDD2EDD2EDD2EDD3EDD8
:102F6000F3EDF3EDF3EDF3EDF3EDF3ED13EE13EE1F
:102F700013EE13EEF3EDF3EDF3EDF3EDF3EDF3ED0F
:102F8000F3EDF3EDF3EDF3EDF3EDD3E5D2E5B2E5DB
:102F900071DD50D50FCD0FCD0FCDEECCADC46CBCD7
:102FA0000BB4CAAB0CBC4DC4AECC8ECC8ECC6ECCAC
:102FB0006ECC4DCC2CC4AAB349A3089B868A247A34
:102FC0008682299B8FC48FC4AFC4F0CC71DDB3ED72
:102FD000D3EDD3EDF4F555F696FE96FEB7FEB7FEAB
:102FE00076F635EED3DD14E656EE96F6B7FEB7FE6E
:102FF00076F615EED2E5B2DD35EE35DECD8BE22884
:103000000008A120A5412B732E9C2E9C4E9C8FA4C2
:103010008FA44F9C4F9C4F9C4F9C4F9C4F9C4F9C10
:103020004F9C4F9C4F9C2F9C2F9C2F9C4F9C4F9CA8
:103030002F9C2E940E940E940E94EE938C834B7BC7
:10304000C96AE6496439C220A118811040084108C4
:103050006108410061084008200020002000200095
:10306000400841082000410861088210A210A21007
:10307000A210A110C2204339E549265A8762E8729E
:103080002983698B898B8993A993CA9BEBA30CA491
:103090002CAC2DAC2DAC4DAC6EB46EB48EB48EB4E5
:1030A0008EBCAEBCAEBCCEBCCFC4CFC4CFC4EFC40C
:1030B000EFCC0FCD30D52FD50FCD0FD52FD550D587
:1030C00050DD50DD71DD91E591E5B1E5B1E5B2E5A9
:1030D000D2EDD2EDD2EDD2EDD2EDD2EDD3EDF3EDD6
:1030E000F3EDF3EDF3EDF3EDF3ED13EE13EE13EE7D
:1030F00013EE13EEF3EDF3EDF3EDF3EDF3EDF3ED8E
:10310000F3EDF3EDF3EDF3EDD3E5D2E5B2E571DDEB
:1031100030D50FCDEECCEECCCDC48DC44CBC0BB4B1
:10312000AAAB89A389A3CAB30CBC0CBCEBB3EBBBA1
:10313000EBB3CBB369A3C78A447AE37182612151AF
:103140004251A3616672C8828B9B6EBC11D572DD41
:1031500051DD31DDD4ED35F676FEB7FED7FED7FE74
:10316000B6FE76F614E6F4E5F4E515E676F6B7FE77
:1031700097F635EED3E591DD14E656E612B5064A2C
:1031800060104010E228C96A0E942E9C2E9C6FA4F9
:103190006FA46FA44F9C4F9C4F9C4F9C4F9C4F9C87
:1031A0004F9C4F9C4F9C2F9C2E942F9C2F9C2F9C70
:1031B0002F9C2E940E940E940E94CD8B6B7B0A73E1
:1031C0008862A5414331A1186010600840004000AA
:1031D0006108400061084008200000000000200055
:1031E00040086108200061088210A210821082103D
:1031F000A210A2182331C549675AC86AE872297B10
:10320000498B698B8993A993AA9BCB9BEBA30CA4B5
:103210002DA42DAC4DAC4DAC4EAC4DAC2DAC2DAC6D
:103220002DAC2DAC4DAC6DB46EB48EBCAEBCCFC469
:1032300010CD30CD30D52FD52FD52FD550D570DD31
:1032400071DD71DD91E591E5B1E5B2E5B2E5B2ED93
:10325000D2EDD2EDD3EDD3EDF3EDF3EDF3EDF3EDF0
:10326000F3EDF3EDF3ED13F613EE13EE13EE13EEB1
:1032700013EE13EE13EE13EE13EE13EE13EE13EE46
:1032800013EE13EEF3EDF3EDF3EDD2E5B2E571DD00
:1032900010CDCEC4ADC4ADC46CBC4BB4EAABA9A3D5
:1032A00069A3689B489B89A389A369A369A369A3B0
:1032B00048A3089BC68A657A046AE369C3616251C0
:1032C00021492149A0380149A461877A6A9B4EB4FB
:1032D000D0CC31D5B3E514F676FEB7FED7FED7FED7
:1032E000D7FEB6FE55EE14E6B3DDD3DD35EEB7FE00
:1032F00097F635EED3E5B2E5F3E576E616D6CD835F
:10330000433120086018475AAC8B2E9C4E9C4E9C33
:103310004E9C8FA44F9C4F9C4F9C4F9C4F9C4F9C0E
:103320004F9C4F9C4F9C2F9C2E942F9C2F9C2F9CEE
:103330002E942E940E940E940E94CD8B4B7BEA72A9
:10334000475A643902298118601061084000400022
:10335000610041004100200020000000000020002A
:103360004008410841088110A210821061086108DC
:10337000A210E320A541265AC86A097B2983498304
:10338000698B898BAA93CA9BCA9BEB9BECA30CA469
:103390000CA40CA40CA40CA4ECA3CC9BAB9B8B9313
:1033A0008B93AB93CB9BCB9BECA30CA42DAC6EB4BB
:1033B000CFC4EFC4EFCCEECC0FCD2FD550DD91DDD7
:1033C00091E591E591E591E5B1E5B2E5B2E5B2EDC2
:1033D000D2EDD2EDF3F5F3F5F3EDF3EDF3F5F3F50F
:1033E000F3EDF3ED13F613F613EE13F613F613EEF7
:1033F00013EE13EE13EE13EE13EE13EE13EE13EEC5
:1034000013EE13EEF3EDF3EDF3EDF3E5B2E571DD5D
:103410000FCDCEC48DC48CBC6CBC2BB4EAABA9A3BD
:1034200089A389A3699B689B489B289B289B289B11
:10343000E792C68A867A857A65724572256AC4598A
:1034400063514249C038A0308030A0386359C882E7
:103450004EBC52DD73DDF4ED56FE97FED7FEF7FE4F
:10346000D7FED7FE96F635E6D3DDB3D515E676F66C
:1034700097F656F613EE33F6B2DD15DE77DE53B56A
:10348000885AC1204010C5492A7B0D946EA44E9CD9
:103490002E9C6FA44F9C4F9C4F9C4F9C4F9C4F9CCD
:1034A0004F9C4F9C4F9C2F9C2E942E942F9C2F9C76
:1034B0002E940E940E940E940E94AD8B2B7BE96A91
:1034C00047526439C22081188118811040082000B9
:1034D00041004100200020002000200020002000AA
:1034E0004108410861088210A2108110400840087C
:1034F000A2180229E5518762097B29834983698BD8
:10350000898B8993CA9BCA9BEB9BEBA3ECA3ECA38F
:10351000CC9BCC9B8B938B938B936A934A8B298BFD
:10352000298B4A8B4A8B6A936A938A93AB9B0CA430
:103530004EAC8EB4AEBCAEBCCEC40FCD50D571DD9A
:1035400091DD91DD91E5B1E5B2E5B2E5B2E5B1E538
:10355000B2EDD2EDF3F5F3F5F3F5F3EDF3F513F684
:1035600013F613F613F613F613F613F613F613EE1B
:1035700013EE13EE13EE13EE13EE13EE13EE13EE43
:1035800013EE13EE13EE13EE13EEF3EDD2E571DD51
:103590000FCDCEC48DC48DBC6CBC4CBC0BB4EAAB9F
:1035A000CAABA9A389A3689B489B2893289B489BE7
:1035B0000893C78AA682A67A867A256AE461C359E7
:1035C000634922412241C13860282028A038066A78
:1035D000CDA311CD72DDD4ED56FE96FEB7FEF7FEFB
:1035E000D7FED7FE96F655EEF4DDB3D5F4E556EEEC
:1035F00096F676F675FE95FE92D5B3D536DE16D6DE
:103600008C7B843940108441E96AED938FA44F9CF0
:103610002E946F9C4F9C4F9C4F9C4F9C4F9C4F9C5B
:103620004F9C4F9C4F9C4F9C2F9C2F9C2F9C2F9CC2
:103630002F9C2E9CED932E94ED934B7BEA6AA9620E
:10364000E649433181188110811061084008200843
:103650002008400820082000000000002000410849
:103660006208821062086108611081106010801881
:10367000E2286341876AC77249836A8B698B698BC9
:103680008A93CB9BCB9BEBA30CA4ECA38B9B6A9361
:103690004A936A934A8B298B0983E982E882E982FB
:1036A000E882C87AC87AC87AE9822A832A8B4B8B47
:1036B0008C93EC9B2DAC4DAC6DB4AEBC10C550CD15
:1036C00071D571D591DD71DD91DDB1E5D2EDF2ED10
:1036D000D2EDD2EDF3EDF3EDF3F513EEF3EDF3ED03
:1036E00013EE14F614F614F614F614F614F614F693
:1036F00014F614EE13EE34EE34EE34EE34F634F603
:1037000014EE13EE13EEF3EDF3EDF3EDB2E571DD30
:1037100030D5EFCCAEC4AEC48DC46DBC4CBC0BB4C4
:10372000EAABC9A3C9A3A8A3689B4893489348934D
:103730002893078BC782867A4572256A0562C45929
:103740008351424922410241A03040204020434958
:103750002B83B0BC93DD93DDF4ED96FE96FE96FED2
:10376000D7FEF7FED7FE76EE15DE15DE14E614E67C
:1037700055EED7FE75F695F634EEB3D5D4D515DEF5
:1037800031BDAB8362394018875ACD8B90A46F9CB2
:10379000709C4F944F9C4F9C4F9C4F9C4F9C4F9CB8
:1037A0004F9C4F9C4F9C4F9C2F9C2F9C2F9C2F9C41
:1037B0002F9C2E9CED93ED938C830A73A862485244
:1037C000A5390221611061106008400840082008F6
:1037D00020082008000000000000200041006208CE
:1037E0008208A31082106108611040104018A120C7
:1037F00063390552C772077B4883698B698B69936C
:10380000AA9BCB9BCB9BCB9BAB9B6A93298BE882E0
:10381000E8820883E882E882C882E882E982E98255
:10382000C87AC87AE97AC97AC97AE97AE97AEA7A01
:103830002A836B8B8B93AB93CB9B0CA44DACAEB418
:10384000CFBCEFC40FCD30D550D591DDB1E5D2ED71
:10385000D2EDD2EDF3ED13EE13EE13EE13EE13EE05
:1038600014F634F614F614F614F614F614F614F6E8
:1038700014F634F614EE34EE34EE34EE34F634F658
:1038800034F614EEF3EDF3EDF3EDF3EDD2ED91E557
:1038900050DD30D5EFCCEFCCCECCADC46DBC4BB44D
:1038A0000BACEAABE9ABA8A3689B48934893289379
:1038B000078BE78AC782867A4572256A056AE461C2
:1038C0008351424922410239C13060284020E23010
:1038D0008862CD9332CD93DDF4ED55F675FE75FE1D
:1038E00096FED7FED7FE97EE76E656E614E6F3DDB3
:1038F00054EEB6FE75F696F635EED3DDF4DD55E6FC
:1039000034DE92C5C76AA020E549AC832E944F945B
:10391000B1A450944F9C4F9C4F9C4F9C4F9C4F9CEC
:103920004F9C4F9C4F9C4F9C2F9C2F9C2F9C2F9CBF
:103930002F9C2E940E94CD8B6B7BC96A685A074AD4
:103940006431C2186110400820082008400840086F
:10395000200800000000000000002000410862086C
:103960008208A2108210611061106010A120233122
:103970000652A86A2883288B488B698B698B8A93A7
:10398000AB9BCB9BCB9BAA9B4A930883E882E882A4
:10399000E88209834A936A936B938B938B938B93FF
:1039A0006B8B4A8B2A830983E97AE97AE97AC97AA7
:1039B0000A7B2A832A834A836A8B6B8BAB93EC9BAB
:1039C0002DAC6DB46EB4AEC4EFCC50D571DD91E5C5
:1039D000B2E5D2EDF3ED13EE13EE14F613EE13EEA3
:1039E00014F634F634F634F634F634F634F634F6A7
:1039F00034F634F634EE34EE34EE34EE34F634F697
:103A000034EE34EE13EE13EEF3EDF3EDF3EDD2ED11
:103A100091E571DD30D530D50FD5EECCAEC48CBC80
:103A20004CBC2BB40AACC9A389A3689B689B489380
:103A30000793E78AE78AA682667A4572256AE46177
:103A4000835142490141E138C130A1284020602022
:103A50006341686A2EAC32D5B3E5D3E534F655FE42
:103A600075FED7FEB7F6B7F6B7EE97EE35E6F3DD9F
:103A700014EE75F695F6B6FE75F6F3E5D3DDF4DDD6
:103A800034DE55DE8EA4C44922396B7BCD8B2F9456
:103A9000B1A44F944F9C4F9C4F9C4F9C4F9C4F9C6C
:103AA0004F9C4F9C4F9C4F9C2F9C2F9C2F9C2E9447
:103AB0002E942E942F9CCD8B4B7BC962685AE64185
:103AC00023298110400820082000200040084008D9
:103AD0002008000000002000410841086108620839
:103AE00062086108610861088110C2202331A5497C
:103AF0006762E972698B498B498B698B8A93AA93B8
:103B0000AB9BAB9BAB9B6A93298B0883298B6A93F6
:103B1000AB9BCCA34EAC4EAC4FB46FB48FB46FAC78
:103B20002EA40DA4AC938B8B4B8B4B832A830A83DF
:103B30002A834B832A836B8B8B8B8B938B938B93F7
:103B4000CC9B0CA40CAC4DB4AFC4F0CC30D551D54B
:103B500091E5B2E5F3EDF3ED14F614F614F614F670
:103B600034F634F634F634F634F634F634F634F605
:103B700034F634F634EE34EE34EE34EE34F634F615
:103B800034F634EE34F614EEF3EDF3EDF3EDD2ED5E
:103B9000B2E592E551DD51DD30D50FD5EECCADC4A7
:103BA0006CBC6CBC4BB40AACC9A3A9A3899B689B31
:103BB00048932893E78AA682667A4572256AE4616B
:103BC000835142492241E138A130A12860200010F0
:103BD00080202339E982B0C472DD92DD14F654F6F8
:103BE00055F6D7FEB7FEB7F6B8F6B7F676EE14E69A
:103BF000F3E514EE55F675F696F655EEF3DD71CD58
:103C000071CD92CDB3CD8B8B2139A86AAC8B4F9CF3
:103C100090A44F9C4F9C4F9C4F9C4F9C4F9C4F9C03
:103C20004F9C4F9C4F9C4F9C2F9C2F9C2E942E94CE
:103C30002E942E942E94AC830A73A8624752A53911
:103C4000E2204008400820082000200040084008EA
:103C50002008000020002000410861086208610877
:103C600041084108410840088118E2288441065271
:103C7000A86A097B698B698B698B8993AA9BAA9B2C
:103C80008A938A936A93498B288B298B8B9B0CACE4
:103C90006EB48FBCAFBCB0BCD0BCF1C411C5F1BC1C
:103CA000B0B48FB44EAC2EA4ED9BCC9BAC936B8B7D
:103CB0004B8B6B8B4B8B8B8BAC93CC9BAC93AC9B20
:103CC000CC9BECA3ECA32DAC8EBCCFC4F0CC10CD20
:103CD00051DD92DDD3EDF3ED13EE14F614F634F668
:103CE00034F634F634F634F634F634F634F634F684
:103CF00034F654F634F634EE34EE34EE34F634F66C
:103D000034F634F634F614F613EEF3EDF3EDD2E5B3
:103D1000B2E592E571DD51DD50DD2FD5EFCCCDC49C
:103D20008DC46CBC4BBC2BB4EAABC9ABA9A389A3B3
:103D3000689B489B0793A68A658245722472E4615A
:103D4000835942494249E130802880286020201070
:103D500020106020E5612EAC52D592E514F634FEB9
:103D600034F6B6FEB7FEB7F6B7F6B7F696EE35EE12
:103D7000F3E5B2DDF3E514EE55F695F634EEB2D583
:103D800051CD51CDB3D5F0BCC351E4518B836FA459
:103D90002E9C6F9C4F9C4F9C4F9C4F9C4F9C4F9CCC
:103DA0004F9C4F9C4F9C4F9C2F9C2F9C2E942E944D
:103DB0000E940E940E948C830A73A9624752643950
:103DC000A118400840084008200840084008400862
:103DD0002008000000002000410861086208610816
:103DE000610841084108400881180229A549465A3E
:103DF000E9724A83498B698B8993AA93CA9BAA9BD0
:103E00008A9369934993498B498B8A93ECA34EB467
:103E1000AFBCCFC4AFBCD0BCF0C411C531CD31CD27
:103E200011C5F1C4F1BCB0B46FB44EAC0DA4AC9BE1
:103E30008B938B936B8B8C93CD9BED9BED9BED9B31
:103E4000ECA3ECA30DAC2DAC6EBCAFC4CFC4F0CCD6
:103E500031D571DDD3E5F3ED13EE14F634F634F617
:103E600034F634F634F634F634F634F634F634F602
:103E700034F654F634F634EE34EE34EE34F634F6EA
:103E800034F634F634F614F613EEF3EDD3EDD2E552
:103E900092E591DD71DD51DD50DD30D50FD5CECC11
:103EA000ADC48CC46CBC2BB4EAABC9ABC9ABA9A381
:103EB00089A3689B0793C68A8582457A2472E46148
:103EC000835942494249E1388028802081204018A6
:103ED0002010201063498B9B31D5B3E514F614F6FE
:103EE00014F676FEB7FEB7F6B7F6B7F697F655EEC8
:103EF000F3E5B2DDF3E5D3E513E654EE54EEF3E576
:103F000091D571CD30C592CDE872A349297B2E9C05
:103F1000ED938FA44F9C4F9C4F9C4F9C4F9C4F9C6C
:103F20004F9C4F9C4F9C4F9C2F9C2F9C2E940E94EB
:103F30000E940E94ED934B7BC96A885A064A232946
:103F400081186010200840084008400840082008F8
:103F500020000000200020004108410861084108BD
:103F60004108200040086010C1208441265AC872D0
:103F700029836A8B698B8993AA93CA9BCA9BAA9B44
:103F80008A938A9369938A93AB9BECA34DB48EBCBE
:103F9000AFC4CFC4D0C4D0C4F0C410CD31CD31CD66
:103FA00031CD31CD31CD10C5D0C4D0BCAFBC4EB4B5
:103FB0000DAC0DA4ED9BED9B0DA42DA42EAC4DAC32
:103FC0004EAC4DAC4DB46DB46EB48EBCCFC410CD00
:103FD00031D551DDB2E5D3EDF3ED14F614F634F638
:103FE00034F634F634F634F634F634F634F634F681
:103FF00034F634F634F634EE34EE34EE34F634F689
:1040000034F634F634EE14EE14EEF3EDF3EDD3E5BE
:10401000B2E592DD71DD71DD51DD50D50FD5EFCC0C
:10402000CECCCDC48DC44CBC0BB4EAABC9ABA9ABF0
:1040300088A3689B279BE6928682657A2472E3694F
:104040008359424902410239C13081206018611808
:1040500041102010C130877A8FBC92DDB2EDD3EDD4
:1040600014F655FE97FEB7FED8FED8F6B7F676F6EC
:1040700034E6F3E5F3E5D3E5D2E5F3E513EE13E635
:10408000D2DDB1D52FC591CD6DAC4562A76A6B83EA
:10409000CD938FA44F9C4F9C4F9C4F9C4F9C4F9C0B
:1040A0004F9C4F9C4F9C4F9C2F9C2F9C2E940E946A
:1040B0000E940E94AC8B0A7388622752A539C220E5
:1040C0004010400820004008410841082008200016
:1040D0000000000040084108410841084108400034
:1040E000200000002008601023310652E8722A8365
:1040F0004A8B698B69938993AA9BCA9BCA9BAA9B8B
:10410000AA9BAA9B8A93AA9B0CA44DB4AEBCCFC415
:10411000CFC4CFC410CDF0CCF0CCF0CC10CD10CDAE
:1041200011CD10CD52D531D511CD31CD31D5EFC412
:10413000AEC48EBC8EB48EB46EAC8EB48EB48EB45F
:104140008EB48EB46EB46DB46DB48EBCCEC410CDCE
:1041500050D551DDB2E5D2E5F3ED14F614F614F6C0
:1041600034F634F634F634F634F634F634F634F6FF
:1041700034F634F654F654F634EE34EE34EE34F6C7
:1041800034F655F614EE14EEF4EDF4EDF4EDD3E55B
:10419000B3E592DD72DD71DD71DD51DD30D50FD516
:1041A000EECCCECCCECC8DC44BBC0BB4EAABC9AB01
:1041B00089A368A3279BE692A68A6582447A046A4B
:1041C000A3596251E13822410239A12060188118B7
:1041D000611020102020C4590DAC31D551DD92ED75
:1041E00014FE55FE96FEB7FEF8FED8FEB7F676EE44
:1041F00055EE34E6D3E5B2DDB2DDF3E533EE54F649
:1042000033EEF2E591D571CD91CDE87A4562E87251
:10421000CC936FA44F9C4F9C4F9C4F9C4F9C4F9CAA
:104220004F9C4F9C4F9C4F9C2F9C0E940E942E9411
:104230000E94CD8B6B832A73A862E649E228401066
:10424000200861102000400840084008200020009D
:104250002000200020004008610861084100200083
:10426000200020080008C120A441886A297B4A8BCD
:104270006A8B8A938993AA9BCA9BCA9B89938993C9
:10428000AA9BCB9BEBA30CAC2DB46DB48EBCAFBC86
:10429000AFBCAEC4EFCCEFCCEFCCEFD4EFCCEFCCD7
:1042A000CFCCCECC30D550DD51DD30D510D530D58A
:1042B00010D510CD10C5F0C4CFBCCFBCEFBC0FC51E
:1042C0000FC50FC530CDEFC4AEC4AEC4EEC42FCD04
:1042D00050D550D592E5B2E5D2E5F3ED13EE14F6E4
:1042E00034F634F634F634F634F634F634F634F67E
:1042F00034F634F634F614EEF3EDF3E5F3E5F3EDCE
:10430000F4E5F4E5B3E5D3E5D3E5B3E5B3DDB3DD3B
:10431000B3E5D3E5B2DDB2E5B2E592DD71DD30D5CE
:104320000FCDEFCCCECCADC46CBC4CBC2BB40AB41E
:10433000C9ABA9A3489B0793C68A8582457A046ABC
:10434000825942512241E138C130A1208120821896
:1043500082106118402063512DACF0CC51DD51DD4D
:10436000D3ED34FE56FEB7FED8FED8FED8FEB7F623
:1043700096F675EE55EE13EEB2DD91DDD2E533EE35
:1043800054F633EEF2E550CD71CDF0BCA76A676A02
:104390002A838FAC4F9C4F9C4F9C4F9C4F9C4F9CB3
:1043A0004F9C4F9C4F9C4F9C2E940E940E942E9499
:1043B000EE93AC834B7B0A738862A541A120200851
:1043C0002008400820004008400840082000200045
:1043D0002000200020004108610841082000200042
:1043E00020002008811023312652E9724A83498B2C
:1043F00069936993AA9BCA9BCA9BCA9BAA9BAA9BC7
:10440000CB9BEBA32CAC2CAC4DB48EBCAFBCAFC4DF
:10441000CFC4CFC4AEC4AEC48EC4AEC4CECCCFCC99
:10442000CECCCECCEFCC0FD510D50FD50FD52FD508
:104430002FD50FD550D530CD30CD30CD30CD30CD7E
:1044400030CD2FCD50D52FCDEECCEECC0FCD2FD5FE
:1044500070D570DD91E5B2E5D2E5F3EDF3ED14F63C
:1044600034F634F634F634F634F634F634F634F6FC
:1044700034F634F6F3EDF3E5B2E5B2DD92DDB2DD0C
:10448000B2DD92DD72D572D551D511CD10CD11CDE1
:1044900011CD31D551D551D551D551D531D530D595
:1044A00010CDEFCCEFCCCEC48DC44CBC2BB40BB430
:1044B000CAABA9A3489B0793C68A8582457A047232
:1044C000A261425121490139C130A12081188118CE
:1044D000611041106020A4512EB4CFC410D510DD5E
:1044E000B2F514F655FEB7FED8FED8FED8FED7F6C4
:1044F000B6F676F675F654EE13E6B2DDB1DDF2E50A
:1045000012EE12EED2E570D5B2D571CD8A8BE97A72
:10451000E97A2EA44F9C4F9C4F9C4F9C4F9C4F9CE4
:104520004F9C4F9C4F9C4F9C2E940E942E940E9417
:10453000CD8B6B7B2A730A73685A43316010200855
:1045400020082008200040084108400020002000EA
:104550002000200040086108610840082000000099
:1045600020002008C2208439A8624A836A8B698BA4
:1045700069936993CA9BCA9BEBA3EBA3EBA3EBA341
:10458000EBA30BAC4DB44DB46DB46EBC8EBCAFC4DC
:10459000AFC4CFC4AEC48EC46DBC6DBC8DC4AEC43C
:1045A0008EC48DC4AECCEFCC0FD5EFD40FD50FD5C4
:1045B0002FDD0FD550D550D550CD50D550D570D515
:1045C00050D550D550D550D52FD52FCD0FD52FD56F
:1045D00050DD90DDB2E5B2E5B2E5D3EDF3ED13EEDB
:1045E00034F634F614F634F634F634F634F614F6BB
:1045F00013EE13EED2E5B2E571DD71D551D551D58B
:1046000051D531D511CDF0C4AFBC6EB44EB44EAC63
:104610004EB46EB48FBCAFBCCFBCCFC4F0C410CD11
:1046200010CD10CD10CDEFCCAEC46DBC4CB40BB4DE
:10463000EAABA9AB689B2893C78A8682657A047225
:10464000A261625121490141C130A120811861104C
:10465000411040108020C4594EB4AFC4CFD4EFDC19
:1046600092EDD3F555FE97FED8FEF8FED8FED7FEA4
:10467000D7F696F655EE75F634EED3E591DDB1DD5D
:10468000F2E512EEF2E5B1DDB2DDB2D56EAC6A8BC9
:10469000A872ED9B4F9C4F9C4F9C4F9C4F9C4F9CF6
:1046A0004F9C4F9C4F9C2F9C2E942E942E940E9496
:1046B0008C832B7B2B730A734752022940104008CE
:1046C0004008200820004008410040002000200051
:1046D000200020004108610841084000000000005F
:1046E00020004008E220C541C86A4A83498B69938B
:1046F000699BA99BCA9BEAA30BA40BA40BA40BA4C4
:104700000BAC2CAC2CAC2CB44DB44DB46DBC8EBCED
:104710008EBCAEC4AEC46DBC4DB44DB46DBC8DBCCE
:104720006DBC4CB48DBCEFCC30D5EFD4EECC0FD5F6
:1047300030D530D530D530D530CD30D530D550D539
:1047400050D550D550D550D550D52FD50FD50FCDEC
:1047500050DD71DDB2E5B2E5B2E5D2E5F3ED13EE81
:1047600034F634F614F634F634F634F614F613EE62
:10477000F3EDF3EDB2E592DD71D551D531D510CD24
:1047800010CD10CDD0C4AFBC4EB40DA4CCA3CC9BE7
:10479000CC9BCC9BCB9BCC9BECA32DAC6EB48FBCA9
:1047A000D0C4F0C4F0C4CFC4AFC48EBC6CBC2BB4B6
:1047B000EAABA9A3699B2893C78AA682657A04728B
:1047C000A261625142492141E130A1288120811832
:1047D000621041106020C4594EB48FC4CFCCEFDCBE
:1047E00092EDB3F535FE76FEB7FED8FED8FED8FEC4
:1047F000D7F6B6F655EE76EE55EEF3E5B1DDB1E55A
:10480000F2ED33EE13EED2E550CD91D5F0BCCC9362
:10481000876ACC934F9C4F9C4F9C4F9C4F9C4F9CC6
:104820004F9C4F9C4F9C2F9C2E942E942E94CD8B5E
:104830006B7B0A732B73E96AE649C1202010401094
:10484000611020084008410841002000200020009D
:10485000200020004108610040002000000000000E
:10486000200860102329064AE8722983288B689360
:10487000899BCAA3EAA3EBA30BA40BA40BAC0BACC0
:104880000BAC2CAC2CAC4CB44DB44DB44DB46DBC95
:104890006EBC6EB44DB40CACECA30CA42DAC2DB41A
:1048A0000CACEBA3ECA38EBCEFC4AEC4AEC4EFCC97
:1048B00051D571DD30D530D530D530D510D530D586
:1048C00030D550D530D550DD50DD30D50FD50FD592
:1048D00030DD71DDB2E5B2E5B2E5D2E5F3ED13EE20
:1048E00014F634F614F614F634F634F614F6F3ED42
:1048F000D3EDD2E592DD71DD51D530D530D510CD77
:1049000010CDF0C4AFBC6EB42EAC0DA4CCA3AB9B49
:104910006B934A8B4A8B4A8B4A8B6B93AB9BECA372
:104920000DAC2DAC4EB46EB46EB46DBC4CB42BB4A7
:104930000AACEAAB699B2893C78AA682657A24727F
:10494000A261615141492241E138C128A220821867
:1049500082186118401884512EAC8FC4CFD410DD5A
:1049600071ED92F514FE56FE97FEB7FEB7F6D8FE2F
:10497000D7F6B7F676EE76F655EE13E6D2E5F2E523
:1049800012EE12EE13EED2E530CD71CD51C52EA44C
:10499000876A6B834F9C4F9C4F9C4F9C4F9C4F9CB6
:1049A0004F9C4F9C4F9C2F9C2E942F9C0E94AC831D
:1049B0004B7B0A732A73885A643980182008401088
:1049C000400820004108410841002000200020004C
:1049D0002000400040004000400020000000200077
:1049E000610881108439675A297B4983498B69930F
:1049F000A9A3EAA3EBA30BA40BA42BAC2BAC2BAC6D
:104A00000BAC0BAC4CB44CB44DB46DB44DB42DB434
:104A10000CAC0CACECA3AC936A8B4A8B4A8B298B05
:104A20000883C87A08838A93ECA3ECA32DACCFBC8F
:104A300031CD51D551DD51DD51DD31DD30D510D5D0
:104A400030D531D530DD51DD51DD51DD30DD30DDAA
:104A500051DD91E5B2E5B2E5B2E5D2E5F3EDF3ED76
:104A600014F634F614F614F634F614F613EEF3EDE9
:104A7000D2E5B2E571DD71DD51D530D530D510CD3F
:104A800010CDF0CCAFBC8FBC4EB42DAC0DA4CC9BE4
:104A90008B934A8B4A832A83298309830A832A8B2F
:104AA0004A8B4A936B93AB9BCBA3EBA3EBAB0BACC7
:104AB0000BAC0BAC699B2993E78AA68265822472B2
:104AC000C361625942512141E138C128A220A21894
:104AD000A218821800182241ACA36EBCCFD4EFDC20
:104AE00051ED72F5F4FD35FE77FE97FEB7F6F8F658
:104AF000F7F6D7F6B7F6B7F676EE34E6F3E5F2E575
:104B0000F2EDF2E5F2EDD1DD50CDB2D593D5AFACFB
:104B1000676AC86A4F9C4F9C4F9C4F9C4F9C4F9C10
:104B20004F9C4F9C2F9C2E942F9C2F9CEE936C831C
:104B30002A730A732A73265202294010401060100B
:104B400040080000410841084100200020002000EA
:104B500020004000400040002000200000004008ED
:104B60008110C118E541A8624A836A8B6993899BC9
:104B7000CAA3CAA32BAC2BA42CAC2CAC2CAC2CAC55
:104B80000CAC0BAC0CAC2CAC2CB42CB40CACCBA340
:104B9000699B49934A83097B876A2662055AE459CF
:104BA000C451A4512562676AA772C87A6A936EAC31
:104BB000D0BCAFBCF1CC11D531DD31DD31DD11D54B
:104BC00011D511D511DD31DD51DD51DD51DD51DD65
:104BD00072E592E592E5B2E5B2E5D3EDF3EDF3EDE2
:104BE00013EE14F614F614F614F614F613EED3EDD1
:104BF000B2E592E571DD71DD51D551D531D531D5B3
:104C000031CD11CDF0C4D0C48FBC6FB44FB42EAC35
:104C1000CD9BAC938B8B8B8B4A832A830A8309832E
:104C2000E982E9820983098B298B49936993899BDE
:104C3000CAA3EBAB8A9B499B088BC78286824472CE
:104C4000C369825962512249E138C130A120A218BA
:104C5000821861180010C0304A8B2DB4CFD4CFDC3D
:104C600030E571EDD3F535FE76FE97FEB8F6F8FE29
:104C7000F8FEF7F6D8F6D8FEB7F655EE13E6F3E5EC
:104C8000F2E5F2E5F2EDD1DD71D5B2D592CDD0B439
:104C90006762265A4F9C4F9C4F9C4F9C4F9C4F9C49
:104CA0004F9C4F9C2F9C2E942F9C4F9CED8B6B7B8D
:104CB0002A732A734B73064AC1204010601061109A
:104CC00040080000400841084100200000000000AA
:104CD000200041002000400020000000200040088B
:104CE000A118E220C549A7626A838A938A93CAA35E
:104CF000CAABC9A32BAC2BAC2CAC4CAC4CB42CAC7D
:104D00002CAC0BACCAA3EBA3ECABEBA3AB9B4993D2
:104D1000C882A7724762065AA44943392239233907
:104D200043416341A449C551C551055AE97A0D9CD7
:104D30004EA40DA48FBCAFC411D531DD32DD11D529
:104D400011DD11D511D511DD31DD31DD51DD52DD42
:104D500072E592E592E5B2E5D2EDD2EDF3ED13EE18
:104D600013EE13EE13EE14F614F614F6F3EDD3ED82
:104D7000B2E591DD91DD71DD71DD51DD71DD51DD7A
:104D800051D531D531D511CDD0C4AFBCAFBC6FB486
:104D90002EACEDA3CC9BCC938B936B8B4A8B2A834D
:104DA0000A830A8BE982E982E882C882E882088B5A
:104DB000699BAAA3AB9B6A932893E78AA682457A4C
:104DC000E3698261625142490139C130A1208118F1
:104DD0006110411000108028E982ECABAFCC8ED47A
:104DE000EFE471EDF3FD35FE76FE97FEB8FEF8FEBA
:104DF00018FFF8FED8F6F8FED7FE75EE13E6F3E5D9
:104E0000F2EDF2ED13EED2DD50CD92D531C5AFAC5F
:104E10006762C4512F9C2F9C2E9C2E9C2E9C4F9CD5
:104E20004F9C4F9C4F9C2E944F9C2F94AC834B7B5C
:104E30004B7B4B734B6BA5398010801040082000D2
:104E400020004000610841082000200021002100CE
:104E50004108410841002000000020004008801067
:104E6000C1200231055208738A8B8A93CA9BCAA358
:104E7000CAA3EAAB0BAC4BAC4CB44CB44CB44CB482
:104E80002CB4EBABCBA3CBA3AB9B6A934A8B09832C
:104E9000676AC559C5514439033103314439A641C4
:104EA000A64144318439074AA4418441A96A4B7B15
:104EB0006B83EC934EACAFBCF0CC31D551DDF0D46C
:104EC000F0D431DD10DD10DD30DD51DD71DD92DD3E
:104ED000B2E5B1E5D2EDD2EDD2EDD2EDF2ED13F6C1
:104EE00013F613F634F634F613F6F3EDF3EDD2EDD4
:104EF000D2E5B2E592DD91DD91DD91DD92E592E5BD
:104F000071DD51DD51DD31D5F0CCF0CCD0CCD0C449
:104F1000AFBC8FBC6FB44FB42EAC0DA4CC9B8B93A5
:104F20006B934B932A8B2A8B098BE882C882E88289
:104F3000098B4A936A938A936A932993A68224726F
:104F4000C369A361425122490241E238E228C220EA
:104F5000821861102010401827624EB4AFCC6ECC7E
:104F6000EFE471EDF3FD35FE76FE97FEB8FEF8FE38
:104F700019FFF8FE19FFF8FEB7F655EE14EEF3E54B
:104F8000F3ED13EE33EEB1DD91DD71CDB2D5AFB4FB
:104F90004562A3492E9C2E9C4F9C2E9C4F9C4F9C5F
:104FA0004F9C4F9C4F9C2E944F940E948C7B4B7334
:104FB0006B7B6B730A63843180108008600820006B
:104FC000200020006108410820002000200021006E
:104FD000210841082100200000002000400880181E
:104FE000E1284239255A087B8A938A93AA9BCAA34F
:104FF000CAABEBAB0BAC4CB44CB44CB44CB44CB4EF
:105000002CACEBA3CBA3CBA38A93298BE97AA87210
:105010002662C551A5490331E2282439653985390D
:105020004431C220C22085396439C6412752A86262
:10503000A8628B834EA4CFBC11CD31CD11D5F0D455
:1050400010D510DD10DD10DD30DD50DD71DD91DDBE
:10505000B1DDB1DDD2EDB1EDD2EDD2EDF2ED13F671
:1050600013F633F633F633F613F613EEF3EDD2ED13
:10507000D2E5D2E5B1DD91DD91DD91DD91E591E5FE
:1050800071E551E531DD11DD10D5F0D4F0CCF0CC77
:10509000F0CCD0C4D0C4D0C490BC6FB42EB40DAC8E
:1050A000CCA3ACA36B9B6B932A93098BE98AE9820F
:1050B000E98AE98A298B498B4A93298BC782257211
:1050C000C3698361625942510241E238E230C22829
:1050D000A218611840102018E6592EACAFCC8ECC27
:1050E000EFDC71EDD3FD35FE76FE97FEB8FEF8FEDF
:1050F00019FFF8FEF8FED8FEB7F655EE14EEF3E50C
:1051000013EE33F613EEB1DD91DD51CDB2D5CFB450
:10511000456262492E9C2E9C4F9C4F9C4F9C4F9CFD
:105120004F9C4F9C4F9C2E942F94EE8B6B7B2B733C
:105130006B7B4B738852432160086008600840080D
:1051400040002000610841082000000020002100EC
:105150004108410820000000000020006010A11854
:105160002231A34166624983AA938993CAA3CAA341
:10517000EAAB0BB42BB44CB46CBC6CBC6CBC4CB484
:105180000CACCBA3CBA3AA9B498BA77A0562A451F5
:105190006349023923394439C649C6492331C220FB
:1051A000E3280329A218C220601023296431E649AC
:1051B00047528B832D9C6EACF0C431CDF1CC11D510
:1051C00031DD10D510DD10DD30DD30DD71DD91DD3C
:1051D00091DD91DDB1E5B1EDD2EDF2EDF2F513F631
:1051E00013F633F633F633F613F613EEF3EDF3ED71
:1051F000F3EDD3E5B2E591DD91DD91DD91E591E54A
:1052000071E551E531DD31DD10DD31D531D531D5F7
:1052100031D531D572DD72DD52DD32D511CDF0C41C
:10522000D0C4AFBC4EB40DACCCA38B9B4A930993B6
:10523000C8828782E882E882098B088BC782457A18
:10524000C46982616359425122490239E230E2283D
:10525000A2208118611800106449CC9BAFCCAED459
:10526000EFDC71EDD3F514FE56FE97FEB7FEF8FEA7
:10527000F8FEF8FEF8FED8FEB7F676EE14EE13EE62
:1052800013EE34F613EEB1DD71D571D5B2D5CFBCC6
:10529000666A21412E9C2E9C4F9C4F9C4F9C4F9C9C
:1052A0002F942F944F9C2F942F94CD8B4B734B7333
:1052B0006B7B2B6B0642E2184008600860084008D0
:1052C000400000008108410820000000200021006B
:1052D0004108410800000000000020006010C118D3
:1052E0006339E451C76A6983AA93AA9BCAA3EAAB4C
:1052F000EBAB2CB44CB46CBC8DBC8DBC8DBC6CBC0D
:105300002CB4EBABCBA3AA9B4993A77A056284513B
:10531000634943416441485A0A73485AC228811874
:105320004431C641A218E320E7416852074A44319C
:10533000E6490A73AC8BAC936EAC31CD31CD31D52F
:1053400052DD31DD31DD10DD30D530D550DD71DDA0
:1053500091DD91DDB1E5B1EDD2EDF2ED13F613F68D
:1053600033F633F634F633F613F613EEF3EDF3EDCE
:10537000F3EDF3EDB2E5B1E591DD91E571E571E5B0
:1053800071E551E530DD31DD31DD51DD51DD71DDBE
:1053900071DD72DD93E593E5B3E5B3E5B3E593E540
:1053A00072DD72DD31D5D0CC8FBC4EB40DAC8BA389
:1053B0000993A782867A877AA77AC882A782667AB3
:1053C000E469836163594251224902390231E2287A
:1053D000C220811881180010E2382A8BAFCCCFD4BC
:1053E000CFDC71EDB3F514FE56FE77F6B7FED8FEAE
:1053F000F8FEF8FEF8FEF8FEB7F676F634EE13E6A1
:1054000013EE34EE13EED2E591DD91D5D2DD10BD71
:10541000C772E0382E9C4E9C4F9C4F9C4F9C4F9CDB
:105420002E942E944F9C4F9C2F94AD832B734B73D3
:105430004B73E9628431A1104000600840084000CD
:1054400040002000610840080000000020004108E2
:105450004108210000000000200020084010C12069
:10546000A341465A087B8A8BAA93AA9BEBA3EBAB7A
:105470000BAC4CBC6DBCADBCAEC4AEC4ADC48DC435
:105480004CB40BACCBA3CBA3AB9B4A8BE88287720B
:10549000676A676A686A4B7B6C832752E3304439DA
:1054A00028522852E320895AD7C537CEB29C274AC2
:1054B000CA628C7B4B83E97A8B8BB0B453D552D5BF
:1054C00052D572DD31DD31DD30D530D550DD70DDC6
:1054D00070DD70DDB1E5B1EDD2EDF2ED13F633F62E
:1054E00033F634F634F633F634F613EEF3EDF3ED2B
:1054F000F3EDD3E5B2E591E571E571DD71E571E5B7
:1055000051E551E530DD31DD51E571E571E571E5DC
:1055100072E592E572E592E593E5B3E5B3E5B3E5AF
:1055200093E572E592E551DDF0CCCFCC8FC42DB47C
:10553000ABA34A93677A46724672667A877A667A2E
:10554000E471A36163594251224922410239023177
:10555000C228A120A22000088028887A6EBCCFD45F
:10556000EFDC51EDB3F5F4F536F676F697F6D8FEA6
:10557000F8FEF8FEF9FEF8FED8FE96F635EE13E6D4
:10558000F3EDF3ED13EEF3E591DDB2DDD3DD30C5E0
:105590002983C0302E9C4E9C4F9C4F9C4F9C4F9C0F
:1055A0002E942E944F9C4F9C2E94AC832B734B7354
:1055B0000A6B475202216008400860084000200042
:1055C0004000400061084000000000002000410849
:1055D0002100200000000000200040086010E128A9
:1055E000E549C76A29838A93CA9BCAA30BAC0BAC53
:1055F0000BB48DBC8DBCCEC4CEC4CEC4CEC4AEC4A0
:105600006DBC2CB40BACEBABCBA3AB9B4A8BC87A79
:10561000A87AA872A9728C8BCD8B68622339A541B8
:10562000695A895A4431695275B5D6C5D2A48D7B61
:1056300013AD74B5AC830A7BC972ED9B52CD73D5A3
:1056400031CD72DD52DD31DD10D530D530D550DDB4
:1056500070DD70DD91E5B1EDD2EDF2ED13F633F6CC
:1056600034F634F634F634F634F613EEF3EDD2EDC8
:10567000D2E5D2E5B2E592E571DD71DD71DD51E58E
:1056800051DD51DD30DD31DD51E571E571E571E56B
:1056900071E571E572E592E592E592E592E572E5D4
:1056A00072E551E572E531DD10D5F0CCD0CCAFC458
:1056B0002DBCECABC882677A05720572467A467AD1
:1056C0000572A46183596251424922414239223113
:1056D0000229E220C22020102020E5610DB4EFD481
:1056E000EFDC51ED92F5F4F535F656F697F6D8F66F
:1056F000F8FED8F6F9FE19FFF8FEB7FE55F614EEDF
:10570000F3E5D3E5F3EDF3E5B2DDB2DDB2DD30C5AF
:105710006A8BC0302E9C4E9C4F9C4F9C4F9C4F9C44
:105720002E942E942F942E940E8C6C7B2B734B7393
:10573000C962C541A110400860086008200000004F
:105740004000600861082000000000004108410896
:105750002000000000002000400860108018223166
:10576000465A49834983AA93CA9BEAA32BAC2BB41C
:105770002CB48DC4ADC4CEC4EEC4CEC4CEC4CDC48E
:105780008DBC4CB42CB4EBABCBA38A9B098B87723A
:10579000266A2662676A2A83AD93EA72C549A541E3
:1057A000275A695A4431E328C641895A8A5A719462
:1057B00079D658D6D1AC2F9CC9720A7BF1BCB4DD26
:1057C00032D573DD52DD31DD30D530D530D550DD09
:1057D00050DD70DD91E5B1EDD2EDF2F513F633F663
:1057E00034F634F654FE34F634F613EEF3EDD2E527
:1057F000D2E5B2E5B2E592E571DD51DD51DD51DD75
:1058000051DD30DD30DD51DD71E571E551E551DD12
:1058100051DD51DD71E571E592E572E572E572E504
:1058200071E571E531DD10DDF0D4CFD4CFCCAFCC54
:105830006EC42DB44A9BC8820572E4690572257254
:105840000572C469835963514249424163414339F6
:1058500022310229C220401000186351CCABEFD492
:1058600010DD51ED92EDD4F535F656F697F6B8F613
:10587000D8FED8F6D8F6F9FEF8FED8FE96F634EE45
:10588000F3E5D3E5D2E513EEB2DDD2DD92D530C536
:10589000AB93C0302E9C4E9C4F9C4F9C4F9C4F9C7A
:1058A0002E940E942E942E94EE8B6C7B2A732B7375
:1058B000A8626331601040086008810800000000A1
:1058C00040006108600820000000200041084108F5
:1058D000200000000000200040088010A120633953
:1058E000A76AAA8B4983A993CA9BEAA32BB42BB4BA
:1058F0002CB4ADC4ADC4CEC4CEC4CEC4CEC4CEC40C
:105900008DC46CBC4CBC0BACCBA38A9B098B877A37
:10591000266A266A8772886A0A7B2A83A86A065AD8
:10592000E651C549C64944312331695A285275B5F3
:10593000DBE679D6D5CD53C52B7B876AB0B4F5E5C8
:1059400073D593DD52DD51D530D530D530D550DD0E
:1059500050DD50DD91E5B1EDD2EDF2F533F633F6E1
:1059600054FE54FE54FE34F634F613EEF3EDD2E555
:10597000B2E5B2E592E571E551DD51DD51DD51DD74
:1059800051DD30DD30DD51DD71DD71DD51DD30D5D2
:1059900030D530DD51DD51DD51DD51E551E551E5C9
:1059A00051E551E551E530DDF0D4CFD4CFCC8EC4F4
:1059B0006DBC2DBCCCAB098B2672C469E469057241
:1059C0000572C469835983516351634983416341BB
:1059D00063392331C2206118001022418BA3F0D417
:1059E00010DD51E592EDD4F515F656F677F6B8F6DA
:1059F000D8FED8F6D8F6F9F6F9FEF8FE97F655EE89
:105A0000F3E5D3E5B2E5F3E5B2DDB2DD92D510C53D
:105A1000CB9BC0384F9C2E9C2E942E942E9C2E9C5B
:105A20002F942E944F9C2E94EE8B0A734B736C7BA9
:105A3000E5490229601061086008200000000000AC
:105A40004000610860082000000020004108410873
:105A5000400841082000410861108010A018A441AE
:105A6000E8726983698B8993CAA30BAC0BAC4BB406
:105A70006CBC8DC4CDC4CEC4CEC4CEC4CDC4ADC464
:105A80008DC46DBC6CBC4CBC2CB4EBABABA34A93CB
:105A9000098BE882E97AE97AE97AE97AC972886A4F
:105AA0002762E651C54968620B73AE83D3AC58D602
:105AB000DBE699DE37DE53C54FA4886AAC9336EE39
:105AC000D4DD72D593DD31D510D50FD50FD50FD5D7
:105AD0002FD54FDD91E591E5D2EDF2F513F633F6D2
